:100000000C9463000C94E3040C9410050C948B0086
:100010000C948B000C948B000C948B000C948B0034
:100020000C948B000C948B000C948B000C948B0024
:100030000C948B000C948B000C948B000C948B0014
:100040000C943D050C948B000C9489060C948B0049
:100050000C948B000C948B000C948B000C948B00F4
:100060000C948B000C948B000000000024002700EF
:100070002A0000000000250028002B0000000000DE
:1000800023002600290004040404040404040202DA
:100090000202020203030303030301020408102007
:1000A0004080010204081020010204081020000012
:1000B0000007000201000003040600000000000029
:1000C0000000C003D20711241FBECFEFD8E0DEBF6F
:1000D000CDBF11E0A0E0B1E0EEE7F3E102C0059092
:1000E0000D92A439B107D9F713E0A4E9B1E001C03A
:1000F0001D92AA31B107E1F710E0C6ECD0E004C0D0
:100100002297FE010E94B909C23CD107C9F70E949B
:10011000B9040C94BD090C940000FB01DC018D9125
:10012000019080190110D9F3990B0895FC0167AF74
:10013000E05CFF4F4193208308950895CF93DF93B0
:10014000DC0180919501FD01EC5BFF4F8083809184
:10015000990120919A01AE5BBF4F90E0877090703B
:10016000880F991F880F991F229526952695237031
:10017000282B2D938091990190E023E09595879508
:100180002A95E1F78C93A354B04020E030E0EF01D2
:100190000AC0F901E556FE4F8081FD01E20FF31F11
:1001A00080832F5F3F4F8881E82FF0E02E173F07B5
:1001B00084F38F3318F4EA0FFB1F1082DF91CF9185
:1001C0000895EF92FF920F931F938C018AE060E0F5
:1001D0000E94ED051EBD0DB407FEFDCF8EB50EBD10
:1001E0000DB407FEFDCFEEB4182F00E08AE061E009
:1001F0000E94ED05FF24E02AF12AC7011F910F910B
:10020000FF90EF90089510929401109295018FEF56
:100210009FEF90939701809396011092980180E050
:1002200090E00E94E1008DED92E80E94E1000895C7
:10023000CF93DF93EC0180919401882349F12091C1
:10024000990130E053E0359527955A95E1F7CF5B5A
:10025000DF4F8881C154D04090E02817390751F012
:100260008091990190E043E0959587954A95E1F753
:10027000892B91F48091960190919701892B61F4DB
:10028000CE010E949E00CE010E94030181E008C0C1
:1002900080919801843019F4CE010E94030180E01E
:1002A000DF91CF91089581E89AEC0E94E10083E804
:1002B0009AEC0E94E1000895CF93DF9380E090E0F4
:1002C0000E94E1009C0180919801813049F08130C9
:1002D00020F0833009F0C7C06CC081E080939801A2
:1002E00037FFC1C08091DC01823038F0823089F460
:1002F00080919A018F73809395018091DC01C82FC2
:10030000D0E080E090EB0E94E100C756DE4F88838A
:1003100025C0809195012091DC0190E0039630E0AA
:10032000821793070CF462C08091DC01833408F0DB
:100330005DC08091DC01C82FD0E080E090EB0E948E
:10034000E100C756DE4F8883809195012091DC0142
:1003500090E0019630E0821793072CF1809196018E
:1003600090919701E091DC01F0E0E756FE4F20818B
:100370008227282F22952827022E2695269520258C
:10038000022E269520252770082E892F2695079462
:100390002795902D82270694279590258227909364
:1003A0009701809396018091DC018F5F8093DC013F
:1003B0005AC09091DD018091DE01981708F044C089
:1003C0008091DD018A3408F03FC0E091DD01F0E06A
:1003D000E152FE4F808190E0805098440E94E100FD
:1003E0008091DD018F5F8093DD013DC080E090E072
:1003F0000E94E1008DE092E80E94E1000E9453011A
:100400006091960170919701E0919501F0E0E556B9
:10041000FE4F4081E0919501F0E0E456FE4F2081CF
:10042000942F80E030E0822B932B8095909586234B
:10043000972390939701809396011092DC0181E0BD
:100440008093940182E00DC080E090E00E94E10082
:100450008DE092E80E94E1008AEA98EB0E94E100B8
:1004600084E080939801DF91CF910895FF920F93DC
:100470001F93CF93DF93EC01042FF52EA42FB52FFC
:10048000FD0101900020E9F731971E2F141B103455
:1004900008F01FE3772767FD7095762F6627770FA3
:1004A000770F770F232B69F4CF5BDF4F8881C1541F
:1004B000D04090E0E6E0880F991FEA95E1F7682BBD
:1004C000792B412F50E0CA018F739070862B972BA8
:1004D000C05CDF4F28812093E3019093E4012091D9
:1004E000E4016FEF7FEF6227962F92959627092EF2
:1004F000969596959025092E969590259770062E9F
:10050000672F969507949795702D69270694979570
:10051000702569278093E5018091E5016827862F82
:1005200082958627082E869586958025082E8695A5
:1005300080258770062E672F869507948795702DE6
:1005400068270694879570256827202F3F2DC901BD
:10055000DC0127E030E0EA0127961FC08C91F90109
:10056000E152FE4F80838D916827862F82958627E2
:10057000082E869586958025082E8695802587707D
:10058000062E672F869507948795702D6827069409
:100590008795702568272F5F3F4F2C173D07F1F691
:1005A000FA01EA51FE4F7083FA01E951FE4F608370
:1005B000FA01E851FE4F8AEA8083FA01E751FE4FC3
:1005C0008083FA01E651FE4F80831092DD014E33A5
:1005D000510524F4145F1093DE0103C08AE4809374
:1005E000DE01809198018130E1F3F89480E090E0A1
:1005F0000E94E10090FF04C0789420E030E01EC02B
:100600008DE092E80E94E10080E090E00E94E1002D
:1006100080E090EB0E94E10080E090EB0E94E1001E
:10062000789483E08093980180E090E00E94E1005C
:100630008DE392E80E94E10021E030E0C901DF9102
:10064000CF911F910F91FF900895CF93DF93EC010D
:100650008BE061E00E94CD058CE060E00E94CD055A
:100660008DE061E00E94CD058AE061E00E94CD0549
:100670008AE061E00E94ED0581E58CBD8DB5816069
:100680008DBD80E060E00E94CD0580E061E00E94C9
:10069000ED058AEA8093DF018093E0018093E10118
:1006A0008DE28093E20180E090E00E94E10085E02D
:1006B00092E80E94E10080E090E00E94E10097FD56
:1006C00005C080E00E943A06892B39F480E098EB5F
:1006D0000E94E10080E090EBECCF8FAD90E0A4E0D1
:1006E000880F991FAA95E1F7876C90680E94E10036
:1006F00080E496EA0E94E10086E096EC0E94E10028
:1007000082EA94E90E94E1008CEA92EC0E94E10006
:1007100083E89AEC0E94E100C05CDF4F888190E0A2
:100720009E6C0E94E10083E894EC0E94E10080E569
:1007300098E90E94E10087E79CEC0E94E10080E0DC
:1007400090EE0E94E10080E098EC0E94E10089E4D4
:1007500090EC0E94E10084E08093980180E090E0BA
:100760000E94E1008DE092E80E94E10080E06CE5EB
:1007700071E040E050E00E94C004DF91CF91089505
:1007800081E392E060918601409187012091880188
:100790000E949600089581E392E00E941801882348
:1007A00009F45BC087E093E060E071E00E944308D9
:1007B00081E392E00E949D00BC0187E093E00E94EB
:1007C000620881E392E00E949D006DE671E00E9464
:1007D0008D00009769F487E093E06CE071E00E947F
:1007E000620887E093E00E944B0881E08093290231
:1007F00081E392E00E949D006FE471E00E948D0011
:10080000009759F581E392E060E04DE651E020E089
:1008100030E00E9436021092290210922A021092B1
:100820002C0210922B020E94850560932D0270937A
:100830002E0280932F029093300287E093E06CE2C7
:1008400071E00E94430887E093E06DE671E00E944A
:10085000620887E093E00E944B080E948505209182
:100860002D0230912E0240912F0250913002621BD6
:10087000730B840B950B615177428040904008F4D4
:1008800058C080912A02882309F049C0809129022A
:10089000882309F044C080912B0290912C02059787
:1008A000ACF581E392E060E04FE451E020E030E01D
:1008B0000E94360287E093E06CE271E00E944308F8
:1008C00087E093E06FE471E00E94430887E093E0E3
:1008D00068E371E00E94430860912B0270912C0242
:1008E0006F5F7F4F87E093E00E942C0987E093E0E1
:1008F0006AE371E00E94620880912B0290912C02C1
:10090000019690932C0280932B0209C087E093E01C
:1009100067E471E00E94620881E080932A020E94ED
:10092000850560932D0270932E0280932F02909381
:100930003002089587E093E040E051EE60E070E01F
:100940000E94C60681E392E00E94250310922C02C9
:1009500010922B021092290210922A020E94850501
:1009600060932D0270932E0280932F029093300299
:1009700008950E9493050E949A040E94CB03FDCF24
:10098000823000F5E82FF0E0EE0FFF1FEA58FD4F30
:1009900071836083882319F08130A1F408C08091AD
:1009A00069008C7F842B80936900E89A0895809178
:1009B0006900440F551F440F551F837F842B80937C
:1009C0006900E99A08951F920F920FB60F921124B1
:1009D0002F933F934F935F936F937F938F939F9347
:1009E000AF93BF93EF93FF9380917602909177023C
:1009F000892B29F0E0917602F09177020995FF9119
:100A0000EF91BF91AF919F918F917F916F915F9186
:100A10004F913F912F910F900FBE0F901F901895FF
:100A20001F920F920FB60F9211242F933F934F9363
:100A30005F936F937F938F939F93AF93BF93EF9346
:100A4000FF938091780290917902892B29F0E091AF
:100A50007802F09179020995FF91EF91BF91AF91E2
:100A60009F918F917F916F915F914F913F912F91C6
:100A70000F900FBE0F901F9018951F920F920FB6F8
:100A80000F9211242F933F938F939F93AF93BF9314
:100A900080917E0290917F02A0918002B0918102AC
:100AA000309182020196A11DB11D232F2D5F2D379C
:100AB00020F02D570196A11DB11D20938202809335
:100AC0007E0290937F02A0938002B0938102809176
:100AD0007A0290917B02A0917C02B0917D020196F6
:100AE000A11DB11D80937A0290937B02A0937C029A
:100AF000B0937D02BF91AF919F918F913F912F91C4
:100B00000F900FBE0F901F9018958FB7F8942091FB
:100B10007E0230917F0240918002509181028FBF0E
:100B2000B901CA010895789484B5826084BD84B502
:100B3000816084BD85B5826085BD85B5816085BDD8
:100B4000EEE6F0E0808181608083E1E8F0E0808182
:100B500082608083808181608083E0E8F0E0808132
:100B600081608083E1EBF0E0808184608083E0EB52
:100B7000F0E0808181608083EAE7F0E0808184603A
:100B80008083808182608083808181608083808196
:100B9000806880831092C1000895282F30E0C90139
:100BA00086569F4FFC0194912A573F4FF90184913B
:100BB000882391F0E82FF0E0EE0FFF1FE859FF4F78
:100BC000A591B491662329F48C91909589238C93F7
:100BD00008958C91892B8C930895482F50E0CA0179
:100BE00082559F4FFC012491CA0186569F4FFC01FC
:100BF00094914A575F4FFA0134913323D1F1222364
:100C000031F1233021F4809180008F7705C02430AA
:100C100031F4809180008F7D8093800018C0213056
:100C200019F484B58F7704C0223021F484B58F7D08
:100C300084BD0DC0263021F48091B0008F7705C0AF
:100C4000273029F48091B0008F7D8093B000E32F8E
:100C5000F0E0EE0FFF1FEE58FF4FA591B491662311
:100C600029F48C91909589238C9308958C91892BEC
:100C70008C930895682F70E0CB0182559F4FFC0143
:100C80002491CB0186569F4FFC0144916A577F4FB8
:100C9000FB019491992319F420E030E038C022231D
:100CA00031F1233021F4809180008F7705C024300A
:100CB00031F4809180008F7D8093800018C02130B6
:100CC00019F484B58F7704C0223021F484B58F7D68
:100CD00084BD0DC0263021F48091B0008F7705C00F
:100CE000273029F48091B0008F7D8093B000892F48
:100CF00090E0880F991F84589F4FFC01A591B491F3
:100D00008C9120E030E0842311F021E030E0C90133
:100D100008951F920F920FB60F9211242F933F93B5
:100D20004F935F936F937F938F939F93AF93BF93F3
:100D3000EF93FF934091C600E0910303F091040309
:100D4000CF01019660E870E00E9453099C018091F8
:100D50000503909106032817390739F0ED57FD4F29
:100D600040833093040320930303FF91EF91BF91DD
:100D7000AF919F918F917F916F915F914F913F9133
:100D80002F910F900FBE0F901F9018955F926F924A
:100D90007F928F929F92AF92BF92CF92DF92EF920B
:100DA000FF920F931F93CF93DF93EC013A014B0116
:100DB000413482E458078FE0680780E078070CF040
:100DC0007FC060E874E88EE190E0A40193010E9486
:100DD00088092150304040405040CA01B90122E00A
:100DE00030E040E050E00E94880959016A01A60104
:100DF0009501209530954095509594E0220F331F32
:100E0000441F551F9A95D1F760E074E284EF90E09B
:100E10000E948809CA01B9012FEF30E040E050E09C
:100E20000E943409A40193010E948809C9018150DC
:100E30009F4F181619061CF4522E5A9403C05524BD
:100E40005394521A60E079E08DE390E0A40193019D
:100E50000E9488092150304040405040CA01B901E9
:100E600022E030E040E050E00E9488092095309573
:100E70004095509583E0220F331F441F551F8A95DC
:100E8000D1F760E074E284EF90E00E948809CA0123
:100E9000B9012FEF30E040E050E00E943409A40196
:100EA00093010E948809C90181509F4F18161906A5
:100EB0001CF4822F815002C081E0821B851500F551
:100EC000E885F98581E090E00A8802C0880F991FC3
:100ED0000A94E2F7808360E079E08DE390E0A4017A
:100EE00093010E9488092150304040405040CA017F
:100EF000B90122E030E040E050E00E94880904C0DF
:100F0000E885F98510829501EC81FD813083EE81C1
:100F1000FF812083EA85FB85208141E050E0CA0102
:100F20000E8402C0880F991F0A94E2F7282B2083B1
:100F3000EA85FB852081CA010F8402C0880F991FB2
:100F40000A94E2F7282B2083EA85FB8580810888B4
:100F500002C0440F551F0A94E2F7842B8083DF916F
:100F6000CF911F910F91FF90EF90DF90CF90BF90A6
:100F7000AF909F908F907F906F905F900895FC014D
:100F8000A085B18521898C9190E0022E02C09595B3
:100F900087950A94E2F780FFF6CF0484F585E02D6B
:100FA000608308958DE891E0909308038093070390
:100FB00083E892E090930A038093090385EC90E024
:100FC00090930C0380930B0384EC90E090930E03BA
:100FD00080930D0380EC90E09093100380930F03B7
:100FE00081EC90E0909312038093110386EC90E0E3
:100FF000909314038093130384E08093150383E09C
:101000008093160387E08093170385E0809318038D
:1010100081E08093190308950F931F93CF93DF937B
:101020008C01EB0109C02196D801ED91FC91019052
:10103000F081E02DC801099568816623A1F7DF9151
:10104000CF911F910F910895EF92FF920F931F93ED
:10105000CF93DF938C017B01EA010CC0D7016D9126
:101060007D01D801ED91FC910190F081E02DC80146
:1010700009952197209791F7DF91CF911F910F91BB
:10108000FF90EF900895DC01ED91FC910280F381D7
:10109000E02D099508950F931F938C01DC01ED91CC
:1010A000FC910190F081E02D6DE00995D801ED9162
:1010B000FC910190F081E02DC8016AE009951F9133
:1010C0000F9108950F931F938C010E944308C8014C
:1010D0000E944B081F910F9108952F923F924F92BB
:1010E0005F926F927F928F929F92AF92BF92CF92B8
:1010F000DF92EF92FF920F931F93DF93CF93CDB7C1
:10110000DEB7A0970FB6F894DEBF0FBECDBF1C01AF
:101110006A017B01411551056105710549F4DC0146
:10112000ED91FC910190F081E02D60E3099554C0B0
:10113000882499245401422E55246624772401E002
:1011400010E00C0F1D1F080D191DC701B601A301EA
:1011500092010E946609F80160830894811C911C29
:10116000A11CB11CC701B601A30192010E9466092E
:10117000C901DA016C017D01C114D104E104F1045B
:10118000F1F681E0E82EF12CEC0EFD1EE80CF91CC6
:101190003E010894611C711CD501C4010197A1098D
:1011A000B1096C01C818D90814C0F601EE0DFF1D75
:1011B00060816A3010F4605D01C0695CD101ED911D
:1011C000FC910190F081E02DC10109950894E1089E
:1011D000F1086E147F0449F7A0960FB6F894DEBFAD
:1011E0000FBECDBFCF91DF911F910F91FF90EF9078
:1011F000DF90CF90BF90AF909F908F907F906F9037
:101200005F904F903F902F900895EF92FF920F9331
:101210001F93CF93DF93EC017A018B0177FF0FC00F
:10122000E881F9810190F081E02D6DE2099510953A
:101230000095F094E094E11CF11C011D111DCE01FC
:10124000B801A7012AE00E946D08DF91CF911F919C
:101250000F91FF90EF900895AB01662757FD6095C1
:10126000762F0E9405090895629FD001739FF001B7
:10127000829FE00DF11D649FE00DF11D929FF00D26
:10128000839FF00D749FF00D659FF00D9927729F5D
:10129000B00DE11DF91F639FB00DE11DF91FBD01E8
:1012A000CF011124089597FB092E07260AD077FD58
:1012B00004D049D006D000201AF4709561957F4F74
:1012C0000895F6F7909581959F4F0895A1E21A2E03
:1012D000AA1BBB1BFD010DC0AA1FBB1FEE1FFF1FDA
:1012E000A217B307E407F50720F0A21BB30BE40B2A
:1012F000F50B661F771F881F991F1A9469F7609571
:101300007095809590959B01AC01BD01CF0108952A
:1013100097FB092E05260ED057FD04D0D7DF0AD043
:10132000001C38F450954095309521953F4F4F4F14
:101330005F4F0895F6F790958095709561957F4F72
:101340008F4F9F4F0895AA1BBB1B51E107C0AA1FD7
:10135000BB1FA617B70710F0A61BB70B881F991F56
:101360005A95A9F780959095BC01CD010895EE0F8F
:0E137000FF1F0590F491E02D0994F894FFCF33
:10137E003C696E636F6D696E673E2000436F6E66EB
:10138E0069726D6174696F6E2072656365697665E9
:10139E00642E20537563636573732E003C4F555452
:1013AE00474F494E473E2000200020617474656D02
:1013BE0070742873292E004641494C454421004D36
:1013CE006573736167652073656E742E20506C654E
:1013DE0061736520636F6E6669726D2E00526F6762
:1013EE0065722E204D657373616765207265636546
:1013FE00697665642E0003D40100000000BF070C5F
:04140E0008240800A6
:00000001FF
